:1060000070200020596100005561000055610000BA
:106010000000000000000000000000000000000080
:1060200000000000000000000000000055610000BA
:1060300000000000000000005561000055610000F4
:106040005561000055610000556100005561000078
:10605000556100003D690000556100005561000078
:10606000556100005561000055610000000000000E
:1060700000000000556100005561000055610000FE
:1060800055610000556100005561000000000000EE
:1060900000000000556100005561000055610000DE
:1060A0005561000010B5064C2378002B07D1054B35
:1060B000002B02D0044800E000BF0123237010BD74
:1060C00000000020000000000C700000084B10B51C
:1060D000002B03D00749084800E000BF07480368C9
:1060E000002B00D110BD064B002BFBD09847F9E7E1
:1060F00000000000040000200C7000000C70000084
:106100000000000010B5014B984710BDA5630000CA
:1061100010B5084C08492000084B98472000084B50
:106120009847084C08492000084B98472000084B26
:10613000984710BD4800002024000020BD660000E4
:10614000D5650000600000202800002045680000A0
:1061500019680000FEE7000010B5124A124B9A427F
:1061600009D0114B0F4A03E011681960043304325F
:106170000E498B42F8D30E4B02E000221A60043322
:106180000C4A9342F9D30C4AFF210C4B8B4393608A
:106190000B4A516880230B4353600A4B98470A4BC4
:1061A0009847FEE70C70000000000020000000206F
:1061B000000000206C00002000ED00E00060000006
:1061C00000400041D16E0000B56E0000024AD36964
:1061D00004210B43D36170470004004010B5034B0A
:1061E000984703490348044B984710BDCD61000010
:1061F000004000412C00002031650000F0B5C6468B
:1062000000B5C027FF0580239B027B60254B264AF3
:106210009A62264A9A6251215A5C042082435A5457
:106220005A5C033880468243844660460243D2B2B9
:106230005A5419395A5C0F26324020252A43D2B2CB
:106240005A548022D2027A61BA608021C9059962CB
:10625000174A9A6252201A5C4446A243644622437B
:10626000D2B21A543924185D0F22904302221043EF
:10627000C0B21855802212037A61BA6099620D4A41
:106280009A625322995C4046814360460143C9B2F9
:1062900099541A5D32402A43D2B21A5504BC904632
:1062A000F0BDC0460044004100000240020002C0B0
:1062B000040000C0080000C0044A136A08210B4310
:1062C0001362034A034B5A807047C04600040040E3
:1062D0000E400000000C004010B5044B98470449E4
:1062E0000448054B9847054B984710BDB96200001C
:1062F000000C0042480000207D650000FD610000A8
:1063000030B50F4B5822995C0125A9430124214344
:10631000C9B299543C20195C493A91430222114375
:10632000C9B2195459215A5CAA432243D2B25A54D1
:106330001A5C4A390A4020210A43D2B21A5430BDAD
:1063400000440041044A136A20210B431362034AAC
:10635000034B5A807047C0460004004010400000C4
:10636000000C004010B5054B984700220449054831
:10637000054B9847054B984710BDC0464563000044
:106380000014004260000020CD670000016300009F
:1063900010B50248024B984710BDC04610E000E01F
:1063A000E564000070B53F4B9847C022D205042336
:1063B000936193603C4B3D499962C020000698620E
:1063C00042255C5D01218C435C55102494619460EE
:1063D000374C9C62986202355C5D8C435C5580242E
:1063E000A40094619460334C9C62986205355C5DB6
:1063F0008C435C558024E400946194602E4C9C6234
:10640000986201355C5D8C435C5580242401946165
:1064100094602A4C9C6298624B24185D88431855FE
:1064200080204002906190608020C0059862244CDA
:106430009C6206355C5D8C435C558024E4035461AA
:10644000946098621F4C9C6206355C5D8C435C5581
:10645000802424045461946098621B4C9C62013532
:106460005C5D8C435C558024240554619460986283
:10647000164C9C6204355C5D8C435C55802464053D
:10648000546194609862124A9A625C201A5C8A4352
:106490001A54104B9847104B9847104B9847104B85
:1064A000984770BD8D680000004400410400004022
:1064B00010000040000200400004004000080040BE
:1064C000010000C0400000C0800000C0000800C003
:1064D000001000C0DD610000D962000065630000AB
:1064E0009163000010B5024B1860024B984710BD35
:1064F0001C000020256E000010B5044B1C68044BE6
:10650000984701002000034B984710BD1C00002055
:106510007D680000316E000010B54369002B00D08B
:10652000984710BD10B58369002B00D0984710BD67
:1065300070B504000D00002813D000290FD00120F1
:1065400038220949094B984729002000084B9847F1
:10655000002803D1074B2360074B636070BD002008
:10656000EEE70020ECE7C046186F000075680000F9
:10657000DD680000196500002565000070B50400A5
:106580000D00002817D0002913D0012040220B490C
:106590000B4B98476560201D29000A4B984700283F
:1065A00006DB094BA382094B2361094BE360002002
:1065B00070BD0020EAE70020E8E7C046306F000029
:1065C00075680000E16A00000080FFFF816600003E
:1065D0004566000010B50400431E9841C0B2572222
:1065E0000349044B9847201D034B984710BDC046F4
:1065F000306F0000756800009D6C000030B587B0FA
:1066000004000D00002815D0002911D00120B3226C
:1066100009490A4B98472B6803936B680493AB684E
:1066200001930593201D03A9054B984707B030BD82
:106630000020ECE70020EAE7306F000075680000FA
:10664000D56C000070B584B004000E001500431E28
:106650009841C0B2A3220749074B984720000C3845
:10666000002302930196039501A9044B984704B0B7
:1066700070BDC046306F000075680000FD65000009
:1066800070B584B004000E001500431E9841C0B2DE
:1066900087220749074B984720000C3802960023B1
:1066A0000193039501A9044B984704B070BDC046FF
:1066B000306F000075680000FD65000070B50400D3
:1066C0000D0000280CD0002908D00120BD2205496A
:1066D000054B98470C342C60002070BD0020F5E776
:1066E0000020F3E7306F000075680000F8B5050082
:1066F0000E001700002823D0002923D0002A23D120
:106700000020F1221149124B98472C000834200038
:10671000104B98470028F8D00025715D20000E4BE3
:10672000984720000B4B98470028FAD00135BD420E
:10673000F3D32000094B98470028FAD02800F8BD71
:106740000020DEE70020DCE70120DAE74C6F0000E4
:1067500075680000BF6A0000AF6A0000C96A0000E7
:10676000F8B5CE46474680B5051E884691461FD0EF
:1067700000291FD0002A1FD10020862252000F4975
:106780000F4B984700262C00083420000D4B9847EB
:106790000028F8D043469F1920000B4B98473870CB
:1067A00001364E45EFD330000CBC90469946F8BDFB
:1067B0000020E2E70020E0E70120DEE74C6F000068
:1067C00075680000D56A0000B76A000070B5040063
:1067D0000D00002814D0002910D0012034220949CE
:1067E000094B9847200008302900084B984700289B
:1067F00003D1074B6360074B236070BD0020EDE7BA
:106800000020EBE74C6F000075680000716A000023
:1068100061670000ED66000010B50400431E98415A
:10682000C0B253220449054B984720000830044B5E
:106830009847002010BDC0464C6F000075680000EE
:106840009D6A000070B504000D0000280BD00029DF
:1068500007D0012069220549054B98472C6000208C
:1068600070BD0020F6E70020F4E7C0464C6F000042
:1068700075680000002800D100BE7047C8239B0047
:10688000584383001B1858007047000010B5064B92
:106890005A685A60054B9847054B9847054B9847EF
:1068A000FF20054B984710BD004000416D69000076
:1068B000BD6D0000016E0000BD680000C3070AD571
:1068C000054B802252009A60832252025A60024B8A
:1068D0005B78DB09FBD17047000C004070B5050008
:1068E0000C0000281CD0104B99421BD000204622DF
:1068F0000E490F4B98472C6162689E2313406360DA
:106900000C4B1D600C4B202280215A50BFF34F8F3F
:10691000BFF36F8F0131FF315A501A60002070BDF4
:106920000020E4E70120E2E700400041686F00003A
:10693000756800002000002000E100E010B50A4B5F
:10694000186803691A7DD20704D50368002B00D0AC
:10695000984710BD1A7D9207FBD502221A7543682D
:10696000002BF6D09847F4E720000020064B1A7A57
:10697000D2B21A725A7AD2B25A729A7AD2B29A723F
:10698000DA7AD2B2DA72704700040040024B9C46B9
:106990006044800AC0B2704700F8FFBD038ADB0B79
:1069A00008D10368022213430360038ADB0BFCD186
:1069B0000020704704204042FBE7000010B50A4B5E
:1069C000984703000020002806D0084A0849002004
:1069D000084B9847002010BD02010749525C9342C2
:1069E000F9D00130C0B2EEE78D6900002A02000044
:1069F000D06F000075680000886F000010B50400BB
:106A0000194B9847238ADB0BFCD1238ADB0BFCD183
:106A100023689B0707D500232360238ADB0BFCD167
:106A2000238ADB0BFCD101232360238ADB0BFCD1FF
:106A3000238ADB0BFCD102010C4B9B185B682360A3
:106A4000238ADB0BFCD10201084B9B189B68636017
:106A5000238ADB0BFCD10001044B18188389638166
:106A6000837B2372002010BDBD690000886F000089
:106A700070B505000C00431E9841C0B2A122044924
:106A8000044B98472C602000034B984770BDC046CC
:106A9000D06F000075680000FD690000026813688F
:106AA00002210B431360138ADB0BFCD17047036890
:106AB00089B2198370470368188BC0B270470368A6
:106AC000987B01231840704703689B7B5B0801207B
:106AD0001840704703689B7B9B0801201840704753
:106AE00070B506000C000800624B98470023002B8D
:106AF00000D16CE00025002E00D174E0002C00D104
:106B00006FE001205C4A5D495D4B9847002D00D144
:106B1000ACE0238ADB0BFCD1238ADB0BFCD123689E
:106B20009B0707D500232360238ADB0BFCD1238A34
:106B3000DB0BFCD101232360238ADB0BFCD1238AEE
:106B4000DB0BFCD134602B786A7812021A43AB78E5
:106B50001B041A43EB781B0613431C221340082B1B
:106B600043D0002C00D17DE0002D00D178E0012041
:106B7000444A4249424B98472B786A7812021A439A
:106B8000AB781B041A43EB781B0613433E4A1340B1
:106B90002360238ADB0BFCD12B796A7912021A431A
:106BA000AB791B041A43EB791B061343374A134096
:106BB00080229202134363602B7BA3726B7B237250
:106BC0002B795B0750D101233371002070BD012860
:106BD00002D00133DBB28AE71D012D4B38335D193A
:106BE00089E700208EE700208CE7002C36D0002DAE
:106BF00032D00120274A2149214B98472B786A78C7
:106C000012021A43AB781B041A43EB781B0613439A
:106C10001D4A13402360238ADB0BFCD12B796A7950
:106C200012021A43AB791B041A43EB791B06134378
:106C3000194A134363602B7A6A7A12021A43AB7AB9
:106C40001B041A43EB7A1B06134363616B7B2372AD
:106C5000238ADB0BFCD1B3E70020CBE70020C9E798
:106C6000002085E7002083E70223ADE70D204042A6
:106C7000ACE7C0468D690000A3080000D06F00009B
:106C80007568000072080000FCFEFFFFBF3FFDFFBB
:106C9000886F0000830800004000020010B5041E49
:106CA0000DD00368002B08D00120064A0649074B87
:106CB00098472068064B984710BD0020F5E7002054
:106CC000F3E7C0460A090000D06F000075680000B5
:106CD0009D69000070B588B00D0004680B680393CF
:106CE0004B6804930023059306930679002814D07B
:106CF000002C10D001202D4A2D492E4B9847238A75
:106D0000DB0B4FD1238ADB0BFCD123689B0718D404
:106D10001420404244E00020EDE70020EBE7002291
:106D200026E05878000201430233039301320592B2
:106D300089B221830598AB68984202D3069A9342A0
:106D400029D9A37BDBB25A07E9D5228B92B20499E9
:106D5000002908D0481C04900A70012E03D9881C11
:106D60000490120A4A70069A019201320692012298
:106D7000002ADFD10699059A9142DBD3DB07D9D5EA
:106D8000039B002B05D0591C03911978012EC8D8FC
:106D9000CCE70949CAE7A37B9B07FCD00323A37375
:106DA00008B070BD04204042FAE7C046010A000066
:106DB000D06F000075680000FF0100000E4A116AE4
:106DC000090C136A9B0F9B0709040C4801400B43F5
:106DD00002210B43136293690B439361137F1D31AF
:106DE0000B401377044BDB681B07FBD5024A136A81
:106DF00080210B4313627047000800400000FF0F22
:106E0000024A936902218B43936170470008004056
:106E1000024B034A5A6005221A60704710E000E0F6
:106E2000FFFFFF0010B5014B984710BD116E000029
:106E3000080E0BE00B4B0C4858609860094B1B6820
:106E4000DB03FBD5094B9C4661441000421ED2B2C5
:106E50000028EFD1034B59609960024B1B68DB039C
:106E6000FBD5704710E000E0FFFFFF00010000FFCE
:106E700010B500240FE00422C023DB055A6110E0A6
:106E80001022C023DB055A61FA204000084B9847C6
:106E900001235C40E4B2002CEDD00422C023DB05CA
:106EA0009A61002CECD01022C023DB059A61EBE73D
:106EB000F964000010B5034B9847034B9847034B08
:106EC0009847C0460561000011610000716E000026
:106ED00070B500260C4D0D4C641BA410A64209D1C0
:106EE000002600F083F80A4D0A4C641BA410A64249
:106EF00005D170BDB300EB5898470136EEE7B300FB
:106F0000EB5898470136F2E7F86F0000F86F000081
:106F1000F86F0000FC6F00002E2E2F68616C2F733D
:106F200072632F68616C5F666C6173682E6300002A
:106F30002E2E2F68616C2F7372632F68616C5F73E4
:106F400070695F6D5F73796E632E63002E2E2F68FC
:106F5000616C2F7372632F68616C5F7573617274FB
:106F60005F73796E632E63002E2E2F68706C2F6E08
:106F7000766D6374726C2F68706C5F6E766D63747F
:106F8000726C2E630000000003000000040031401A
:106F900000000300000000000000000000000000EE
:106FA00000000000000000000000000000000000E1
:106FB00000000000000000000000000000000000D1
:106FC0000C0011000000020000000000030000019E
:106FD0002E2E2F68706C2F736572636F6D2F687023
:106FE0006C5F736572636F6D2E630000F8B5C04609
:106FF000F8BC08BC9E467047CD600000F8B5C0469E
:0C700000F8BC08BC9E467047A56000006C
:040000030000600099
:00000001FF
